:020000040800F2
:100000005049002039020008D90D0008F50C0008FD
:10001000D50D000845030008490F00080000000046
:10002000000000000000000000000000A101000826
:100030004903000800000000E5010008150E000853
:10004000530200085302000853020008530200083C
:1000500053020008530200084B0300085302000833
:10006000530200085302000853020008530200081C
:10007000530200085302000853020008530200080C
:1000800053020008530200085302000853020008FC
:1000900053020008530200085302000853020008EC
:1000A00053020008530200085302000853020008DC
:1000B00053020008530200085302000853020008CC
:1000C00053020008530200085302000853020008BC
:1000D00053020008530200085302000853020008AC
:1000E000530200085302000853020008530200089C
:1000F000530200085302000853020008530200088C
:10010000530200085302000853020008530200087B
:10011000530200085302000853020008530200086B
:10012000530200085302000853020008530200085B
:10013000530200085302000853020008530200084B
:10014000530200085302000853020008530200083B
:10015000530200085302000853020008530200082B
:10016000530200085302000853020008530200081B
:100170005302000853020008530200080000000068
:100180005302000853020008DFF810D000F0C8F84E
:1001900000480047D90F0008AFF300805049002005
:1001A000224B19680868B0E8F00F80F30988BFF3A4
:1001B0006F8F4FF0000080F311884EF00D0E7047E6
:1001C0000000000006480068006880F3088862B6F6
:1001D00061B6BFF34F8FBFF36F8F00DF00BF00BF6B
:1001E00008ED00E0EFF30980BFF36F8F0F4B1A6843
:1001F00020E9F00F106008B54FF0BF0080F31188C0
:10020000BFF34F8FBFF36F8F01F066FC4FF000001C
:1002100080F31188BDE8084019680868B0E8F00F5D
:1002200080F30988BFF36F8F704700BF2400002060
:10023000EFF30580704700000648804706480047F6
:10024000FEE7FEE7FEE7FEE7FEE7FEE7FEE7FEE786
:10025000FEE7FEE7E50E0008890100082DE9F05FE2
:100260000546002092469B46884606468146402425
:100270001BE0284641464746224600F041F85346D7
:100280005A46C01A914110D311461846224600F032
:1002900028F82D1A67EB01084F462246012000215D
:1002A00000F01FF817EB00094E41201EA4F10104D5
:1002B000DFDC484631462A464346BDE8F09FD2B2CD
:1002C00001E000F8012B491EFBD270470022F6E73F
:1002D00010B513460A4604461946FFF7F0FF2046BC
:1002E00010BD202A04DB203A00FA02F100207047FA
:1002F0009140C2F1200320FA03F319439040704764
:10030000202A04DB203A21FA02F00021704721FA6A
:1003100002F3D040C2F120029140084319467047D1
:10032000064C074D06E0E06840F0010394E8070042
:1003300098471034AC42F6D3FFF72AFF341F000869
:10034000541F000800BFFEE770477047F8B502462B
:100350000B460025002400200021DCE0012606FADF
:1003600001F51E6806EA0504AC4273D15E68022EF0
:1003700002D05E68122E13D1CF0802F1200656F883
:1003800027004E07F70E0F26BE40B0434F07FF0E63
:100390001E69BE403043CF0802F1200646F8270010
:1003A00010684F000326BE40B0431E7906F00306D6
:1003B0004F00BE40304310605E68012E08D05E687A
:1003C000022E05D05E68112E02D05E68122E13D167
:1003D00090684F000326BE40B0434F00DE68BE4029
:1003E00030439060506801268E40B0431E79C6F3BA
:1003F00000168E4030435060D0684F000326BE4048
:10040000B0434F009E68BE403043D0605E6806F047
:100410008056B6F1805F7DD100BF00260096404E29
:10042000366846F480463E4F3E603E46366806F4E7
:100430008046009600BF00BF3A4E8F0856F827004E
:100440008E07370F0F26BE40B043374EB24202D15F
:10045000002624E05EE0354EB24201D101261EE0C6
:10046000334EB24201D1022619E0324EB24201D1DE
:10047000032614E0304EB24201D104260FE02F4E85
:10048000B24201D105260AE02D4EB24201D1062624
:1004900005E02C4EB24201D1072600E008268F0766
:1004A0003F0FBE4030431F4E8F0846F82700264EB0
:1004B0003068A0435E6806F48036B6F5803F00D110
:1004C0002043214E3060361D3068A0435E6806F43C
:1004D0000036B6F5003F00D120431B4E361D30607C
:1004E000361D3068A0435E6806F48016B6F5801F9E
:1004F00000D12043144E08363060361D3068A043CA
:100500005E6806F40016B6F5001F00D120430E4EBB
:100510000C363060491C1029FFF420AFF8BD0000F4
:100520004438024008380140000002400004024004
:1005300000080240000C024000100240001402407B
:1005400000180240001C0240003C014002461369B2
:100550000B400BB1012000E0002070470AB181611F
:1005600001E00B048361704701480068000C70478C
:10057000002004E0014800687047000004000020EB
:1005800070B504460E4800784FF47A71B1FBF0F074
:100590000C490968B1FBF0F5284600F091FB08B161
:1005A000012070BD102C07D200222146501E00F001
:1005B0000DF80548046001E00120F2E70020F0E7B3
:1005C0000C00002000000020080000202DE9F05F52
:1005D00080460D461646002700F000FC07463946C7
:1005E0002A46334601F00700C0F1070ABAF1040FAA
:1005F00002D94FF0040A01E0C0F1070AD14600F128
:10060000040ABAF1070F02D24FF0000A01E0A0F18C
:10061000030AD4464FF0010A0AFA09FAAAF1010ABC
:100620000AEA020A0AFA0CFA4FF0010B0BFA0CFB69
:10063000ABF1010B0BEA030B4AEA0B0421464046DF
:1006400000F0D4FBBDE8F09F70B504460D460CB930
:10065000012070BD5848006800F00F00A84209D280
:1006600055490D700846006800F00F00A84201D0FF
:100670000120EEE7207800F0020002281DD120784A
:1006800000F00400042805D14C48006840F4E05014
:100690004A490860207800F00800082805D147483A
:1006A000006840F46040454908604448006820F014
:1006B000F000A168084341490860207800F001007B
:1006C000A8B36068012807D13C4808380068C0F327
:1006D0004040B8B90120BCE76068022802D06068D9
:1006E000032807D1354808380068C0F3406048B98E
:1006F0000120AEE7314808380068C0F3400008B96F
:100700000120A6E72D48006820F003006168084337
:100710002A490860FFF72EFF064609E0FFF72AFF87
:10072000801B41F28831884202D9032091E707E01B
:100730002248006800F00C006168B0EB810FEDD139
:100740001D48006800F00F00A84209D91A490D7031
:100750000846006800F00F00A84201D0012078E7A9
:10076000207800F00400042807D11448006820F421
:10077000E050E168084311490860207800F0080063
:10078000082808D10D48006820F46040216940EA3B
:10079000C1000A49086000F017F808490968C1F368
:1007A0000311074A515CC840064908600F20FFF753
:1007B000E7FE00204DE70000003C02400838024000
:1007C0001C1F0008000000202DE9F0470024002530
:1007D0000026A1462548006800F00C0020B104283E
:1007E00005D008283AD105E0DFF8849039E0DFF839
:1007F000849036E01D48001F006800F03F041B484D
:10080000001F006800F4800078B11A481749091FDA
:100810000968C1F38811A0FB01700146224600233C
:100820003846FFF71BFD05460EE011480F49091F2A
:100830000968C1F38811A0FB01700146224600231C
:100840003846FFF70BFD05460848001F0068C0F357
:100850000140401C4600B5FBF6F902E0DFF81090BD
:1008600000BF00BF4846BDE8F087000008380240DE
:100870000024F40040787D01F8B504460CB901204D
:10088000F8BD207800F00100002874D0F948006815
:1008900000F00C0004280DD0F648006800F00C00B1
:1008A000082813D1F348001F006800F48000B0F559
:1008B000800F0BD1EF4808380068C0F34040002893
:1008C00059D06068002856D10120D9E700BF606880
:1008D000B0F5803F08D1E7480838006840F4803020
:1008E000E449083908601EE06068B0F5A02F0DD11A
:1008F000E0480838006840F48020DE490839086084
:100900000846006840F4803008600CE0D948083898
:10091000006820F48030D74908390860084600682C
:1009200020F48020086000BF606890B1FFF722FECD
:10093000054606E0FFF71EFE401B642801D9032090
:100940009EE7CC4808380068C0F340400028F1D04A
:1009500011E0FFF70FFE054606E0FFF70BFE401B18
:10096000642801D903208BE7C24808380068C0F327
:1009700040400028F1D1207800F0020002285FD129
:10098000BC48006800F00C0058B1BA48006800F09C
:100990000C0008281CD1B748001F006800F4800034
:1009A000B0B9B44808380068C0F3400020B1E0682E
:1009B000012801D0012063E7AE480838006820F024
:1009C000F800216940EAC100AA490839086037E007
:1009D000E06800B30120A8490860FFF7CBFD054699
:1009E00006E0FFF7C7FD401B022801D9032047E7B7
:1009F000A04808380068C0F340000028F1D09D48A6
:100A00000838006820F0F800216940EAC1009949DF
:100A10000839086014E0002097490860FFF7AAFD34
:100A2000054606E0FFF7A6FD401B022801D903207A
:100A300026E7904808380068C0F340000028F1D14C
:100A4000207800F0080008282CD16069A8B10120A6
:100A50008A490860FFF78EFD054606E0FFF78AFD2C
:100A6000401B022801D903200AE782486C30006845
:100A7000C0F340000028F1D014E000207F49086056
:100A8000FFF778FD054606E0FFF774FD401B0228DE
:100A900001D90320F4E677486C300068C0F34000C9
:100AA0000028F1D1207800F00400042870D100263D
:100AB00070483830006800F0805090B900BF0020C6
:100AC00000906C483830006840F0805069493831F7
:100AD00008600846006800F08050009000BF00BF2A
:100AE00001266748006800F48070B0B96448006867
:100AF00040F4807062490860FFF73CFD054606E05F
:100B0000FFF738FD401B022801D90320B8E65C48F6
:100B1000006800F480700028F2D000BFA0680128AF
:100B200008D154486830006840F0010051496831EC
:100B300008601DE0A06805280DD14E4868300068A7
:100B400040F004004B49683108600846006840F0F6
:100B5000010008600CE047486830006820F00100A0
:100B60004449683108600846006820F004000860C5
:100B700000BFA068A8B1FFF7FDFC054609E0FFF73C
:100B8000F9FC401B41F28831884202D9032077E604
:100B900026E0384868300068C0F340000028EED0F6
:100BA00013E0FFF7E7FC054608E0FFF7E3FC401B16
:100BB00041F28831884201D9032061E62D4868302E
:100BC0000068C0F340000028EFD1012E07D129486A
:100BD0003830006820F0805026493831086000BF66
:100BE000A069B8B32348006800F00C0008285ED064
:100BF000A069022846D100201F490866FFF7BAFC09
:100C0000054606E0FFF7B6FC401B022801D9032089
:100C100036E6184808380068C0F340600028F1D173
:100C2000D4E907010843616A40EA81110122A06A00
:100C3000C2EB500041EA00412C20005D41EA006017
:100C40000C49091F086001200B490866FFF792FC58
:100C5000054607E02DE0FFF78DFC401B022801D977
:100C600003200DE6034808380068C0F34060002800
:100C7000F1D01EE00838024000004742800E474293
:100C80000070004000200C490866FFF773FC054621
:100C900006E0FFF76FFC401B022801D90320EFE5B7
:100CA00006480068C0F340600028F2D101E001204E
:100CB000E6E50020E4E5000000004742003802407D
:100CC00070B504462546681EB0F1807F01D301202F
:100CD0000FE0681E4FF0E02148610F214FF0FF3018
:100CE00000F084F800204FF0E021886107200861BF
:100CF000002070BD00BFFEE700B587B000BF002038
:100D000001901848006840F0010016490860084644
:100D1000006800F00100019000BF00BF00BF00208C
:100D200001900846006840F004000860084600682A
:100D300000F00400019000BF00BF002003900220DB
:100D40000490032005900120029002A90648FFF7B5
:100D5000FDFA4FF40050029002A90448FFF7F6FA9A
:100D600007B000BD303802400000024000080240D9
:100D700000B587B000BF002001901448006840F023
:100D80002000124908600846006800F02000019029
:100D900000BF00BF01200390049003200590402075
:100DA000029002A90A48FFF7D1FA8020029002A916
:100DB0000748FFF7CBFA4FF48070029002A904486D
:100DC000FFF7C4FA00F0D2F807B000BD3038024097
:100DD0000014024000BFFEE77047000002480068B0
:100DE000C0F30220704700000CED00E010B50028B1
:100DF00007DA0A07140E054A00F00F031B1FD4542C
:100E000003E00A07130E024A135410BD18ED00E068
:100E100000E400E010B500F0E3FE012801D000F08E
:100E2000A9FE10BD00B593B000BF002001902A4874
:100E3000006840F08050284908600846006800F0CB
:100E40008050019000BF00BF00BF002001902348E8
:100E5000006840F48040214908600846006800F4BA
:100E60008040019000BF00BF012002900004039069
:100E7000022008904105099119210A914FF4A871A7
:100E80000B9102210C9107210D9102A8FFF7F4FCB0
:100E900008B100BFFEE70F200E9002200F90002047
:100EA00010904FF4A05011904FF4805012900521F3
:100EB0000EA8FFF7C9FB08B100BFFEE7FFF754FB20
:100EC00041F20101884205D10548006840F4807074
:100ED0000349086013B000BD403802400070004074
:100EE000003C02401448006840F470001249086059
:100EF0001248006840F001001049086000200F49C6
:100F0000083108600D4800680D4908400B49086029
:100F10000C48091D0860081F006820F48020091F84
:100F20000860002005490C3108604FF0006002495C
:100F3000803908607047000088ED00E0003802400A
:100F4000FFFFF6FE1030002400BFFEE702E008C8F5
:100F5000121F08C1002AFAD170477047002001E033
:100F600001C1121F002AFBD17047000010B50122F9
:100F70004021074800F00EF801228021044800F0CB
:100F800009F801221102024800F004F810BD000027
:100F90000014024070B504460D46164632462946F6
:100FA0002046FFF7DBFA70BD1CB50648012100237F
:100FB0008022CDE9001004A1064800F0F5FD00F004
:100FC0005DFD1CBD100000207461736B5F63726572
:100FD000617465002916000810B5FFF723FFFFF7BD
:100FE000C7FEFFF789FEFFF7DFFF002010BD0000FE
:100FF0002DE9F04705460E46294807682948D0F8EC
:1010000000802948D0F8009028480068001D00F0B2
:1010100007FC50B92548006890F82C100120884042
:1010200023490968814322480160681CE0B9DEB1A8
:1010300000BF204948681D49096888601B498268CB
:101040000968CA6019490968091D82685160174911
:101050000968091D8160174A144909684A611146E7
:101060000968491C116018E07C1910480068446048
:10107000BC4206D20D480168091D484600F0F4FB49
:101080000BE00A480168091D404600F0EDFB0A48E4
:101090000068844201D208480460BDE8F08700007F
:1010A00038000020280000202C0000202400002010
:1010B0003C000020380100205400002010B50446F8
:1010C00000F0F8FB32480068401C314908603148A4
:1010D000006840B92F4804600846006801280DD117
:1010E00000F07AF90AE02C48006838B9294800680D
:1010F000C06AE16A884201D826480460274800682F
:10110000401C2649086000BF94F82C10012088403C
:101110002349096808432249086000BFE16A01EBDE
:101120008101204A02EB81014868A0608268E26088
:10113000211D826851608160E16A01EB8101194AD9
:1011400002EB81026261E16A01EB8101154A52F80A
:101150002110491CE26A02EB8202124B43F8221072
:1011600000BF00BF00F0B8FB0B48006878B100BFBB
:1011700008480068C06AE16A884207D24FF0805090
:1011800009490860BFF34F8FBFF36F8F00BF10BDD9
:1011900034000020240000204000002050000020E7
:1011A0003C0000208400002004ED00E010B516E0B3
:1011B00000F080FB0C48C068C468201D00F030FBC4
:1011C0000A480068401E0949086009480068401E36
:1011D0000749086000F080FB204600F06CF80448E6
:1011E00000680028E4D110BD240100203400002054
:1011F00030000020F0B587B001260027002408E069
:1012000012A0005D03A9085503A8005D00B902E023
:10121000641C102CF4DB00BF002510E00D4F0E48BD
:1012200000EB850000210B468022CDE9001003A9C8
:10123000384600F0B9FC064606B902E06D1C012DE7
:10124000ECDB00BF304607B0F0BD000049444C4520
:101250000000000035130008580000202DE9FF5F52
:101260000746884616469946DDE90EABB00000F009
:101270003FF9054675B14C2000F03AF904462CB10F
:101280004C212046FFF722F8256304E0284600F0B1
:1012900033FB00E0002454B100204B463246414667
:1012A000CDE900ABCDE90240384600F057F82046C2
:1012B00004B0BDE8F09F10B50446206B00F01CFBA5
:1012C000204600F019FB10BD30B54FF48843144898
:1012D00000F007042CB1C01D20F00700104C041BC7
:1012E0001B1B104C206000240E4D6C60C218083A85
:1012F00022F007020C4C226000240B4D2D686C601C
:10130000094D2D682C600146541A4C60064C246827
:101310000C60064D4C682C60054D4C682C6030BD4F
:101320004C010020680000207000002078000020A0
:101330007400002000BFFFF739FF0648006801284D
:10134000F9D94FF0805004490860BFF34F8FBFF3C5
:101350006F8FF0E78400002004ED00E02DE9FF5FCF
:1013600080460E469146DDE90E7A109CA9F10100F7
:10137000216B01EB800B2BF0070B7EB1002507E002
:10138000715D04F134004155705D00B902E06D1CDF
:10139000102DF5D300BF002143200155052F00D3A8
:1013A0000427E762201D00F05CFA04F1180000F049
:1013B00058FA2461C7F10500A061646241465846AD
:1013C000039A00F015F92060BAF1000F01D0CAF8B5
:1013D0000040BDE8FF9F000010B5002407E004EBCB
:1013E00084010F4A02EB810000F02EFA641C052CE8
:1013F000F5D30C4800F028FA0B4800F025FA0B480A
:1014000000F022FA0A4800F01FFA0A4800F01CFA1D
:1014100004480949086004480849086010BD0000F4
:1014200084000020E8000020FC00002010010020C3
:101430002401002038010020280000202C0000207A
:1014400010B50146164800E0006803688B42FBD3E4
:101450000246436813448B4204D143684C682344DA
:10146000436001460A464B6813440468A34211D105
:101470000C4C03682468A34208D04B680468646875
:1014800023444B6003681B680B6005E0054B1B6839
:101490000B6001E003680B60884200D0016010BD62
:1014A000680000207000002009480068006808B942
:1014B000012000E0002020B14FF0FF300549086016
:1014C00005E003480068C06800680249086070478A
:1014D000280000205400002000BFBF2080F31188A6
:1014E000BFF34F8FBFF36F8F00BF00BFFEE7000059
:1014F0002DE9F04704464FF00009DCB114F1090F63
:1015000001D9012000E0002098B9083404F0070058
:1015100080B104F00700C0F10808C8F1FF30A04214
:1015200001D2012000E0002008B9444402E0002478
:1015300000E0002400F0C8FA2848006808B9FFF766
:10154000C3FE012000EBE470002841D0002C3FD006
:101550002348006884423BD8224E3046056801E0AB
:101560002E462D686868A04202D228680028F7D16C
:101570001A48006885422BD0306800F108092868B5
:1015800030606868001B102807D92F196868001B95
:1015900078606C6030683860376011496868096845
:1015A000081A0F490860084600680F490968884210
:1015B00003D20B4800680C490860686840F000409E
:1015C00068600020286009480068401C07490860DE
:1015D00000F0E6FB4846BDE8F08700007000002000
:1015E0007400002068000020780000207C000020AB
:1015F000001F4FF080730360001F21F001030360A0
:10160000001F034B0360143802602038704700004D
:10161000D914000870B504460D4629462046FEF749
:1016200095FF0646304670BD1CB500F043F91248E0
:10163000022100238022CDE9001010A1124800F001
:10164000B3FA1248032100238022CDE9001010A133
:10165000124800F0A9FA1248042100238022CDE9A3
:10166000001010A1124800F09FFA00F035F9002098
:1016700000F08EF91CBD0000140000207461736B33
:101680005F6C656400000000A917000818000020C6
:101690007461736B5F6B657931000000B5160008EB
:1016A0001C0000207461736B5F6B65793200000071
:1016B0002D17000833E001211948FFF7ABFF04465E
:1016C0004CBB0A2000F04AF901211548FFF7A2FFA0
:1016D000044604BB00F0EEF8012012490870012214
:1016E00040211148FFF756FC00224FF480710E484C
:1016F000FFF750FC012280210B48FFF74BFC00F064
:10170000EBF802E00A2000F029F901210448FFF774
:1017100081FF0028F6D0322000F020F900BFCAE790
:1017200000000240200000200014024035E04FF489
:1017300000511A48FFF76EFF044654BB0A2000F020
:101740000DF94FF400511548FFF764FF044604BB40
:1017500000F0B0F80220124908700122402111481F
:10176000FFF718FC012211020E48FFF713FC0022BC
:1017700080210C48FFF70EFC00F0AEF802E00A20D2
:1017800000F0ECF84FF400510448FFF743FF002845
:10179000F5D0322000F0E2F800BFC8E700080240B0
:1017A000200000200014024000F084F800201A49B4
:1017B0000870002240211948FFF7ECFB01221102BA
:1017C0001648FFF7E7FB012280211448FFF7E2FBF0
:1017D00000F082F81FE000F06DF80F48007878B94B
:1017E000002240210D48FFF7D5FB012211020B48D2
:1017F000FFF7D0FB012280210848FFF7CBFB04E074
:10180000012240210548FFF7C5FB00F065F84FF4C1
:10181000FA7000F0A3F8DEE7200000200014024078
:1018200001460A69D1E901309860D1E901035860A5
:101830005068884201D188685060002008611068B3
:10184000401E10601068704700F1080141604FF0C1
:10185000FF31816000F10801C16001610021016078
:10186000704700210161704710B502460B685C1C8F
:101870000CB9106907E002F1080000E04068446814
:1018800024689C42FAD944684C604C68A160886026
:1018900041600A611468641C146010BD42684A60AB
:1018A00093688B60936859609160086103685B1C62
:1018B0000360704700BFBF2080F31188BFF34F8FD4
:1018C000BFF36F8F00BF03480068401C01490860E8
:1018D000704700006400002006480068401E05496B
:1018E00008600846006820B9002080F3118800BF16
:1018F00000BF70476400002070B506463546E6B16B
:10190000083D2C466068C00FB8B12068A8B960686F
:1019100020F00040606000F0D7F80849606809686E
:101920000844064908602046FFF78AFD044800681D
:10193000401C0349086000F033FA70BD74000020B9
:101940008000002000204FF0E021086188610248FB
:1019500048610720086170473F90020070B5044657
:10196000002544B100F0B0F800212046FFF740FB0D
:1019700000F016FA05463DB94FF080500349086063
:10198000BFF34F8FBFF36F8F70BD000004ED00E019
:101990002DE9F04105460026FFF78CFF15B92E48CA
:1019A000006800E028460446201DFFF739FF88B98B
:1019B00000BFE06A00EB8000284951F8200040B9E0
:1019C00094F82C1001208840254909688143244857
:1019D000016000BFA06A18B104F11800FFF720FFF2
:1019E00020480068401C1F4908601B48006884426A
:1019F00001D1012000E0002007461B48006858B1D3
:101A000057B1211D1948FFF749FF19480068401CCC
:101A100017490860012606E016480068401E15496F
:101A20000860FFF741FDFFF757FF012E02D0204667
:101A3000FFF741FC0C48006858B107480068844231
:101A400007D14FF080500C490860BFF34F8FBFF3B0
:101A50006F8FBDE8F081000024000020840000208A
:101A60003C00002050000020400000202401002005
:101A7000300000203400002004ED00E010B5FFF736
:101A8000B9FB0446012C14D100BFBF2080F311889C
:101A9000BFF34F8FBFF36F8F00BF4FF0FF3006498A
:101AA000086001200549086000200549086000F031
:101AB00047F80448006810BD540000204000002092
:101AC000380000205C00002002480068401C0149EA
:101AD00008607047600000201448006818B10120B9
:101AE0001349086021E000201149086000BF114837
:101AF0000068B0FA80F0C0F11F0100BF01EB810265
:101B00000D4B03EB820042685268426000F108020C
:101B10004368934201D1C26842604268D268074B71
:101B20001A6000BF00BF18460068704760000020C0
:101B3000480000203C0000208400002024000020F9
:101B400010B50A48006840F47F000849086008465C
:101B5000006840F07F400860FFF7F4FE0020044971
:101B60000860FEF72FFB002010BD000020ED00E014
:101B70006400002010B500BFBF2080F31188BFF3C0
:101B80004F8FBFF36F8F00BF00F03AF818B14FF0DE
:101B900080500449086000BF002080F3118800BF16
:101BA00010BD000004ED00E02DE9FC5F06460F4685
:101BB00090469946DDE90CAB4B46424639463046E5
:101BC000CDE900ABFFF74AFB054625B12846FFF7F4
:101BD00075FA012401E04FF0FF342046BDE8FC9F78
:101BE0000549096809B9012005E00449096809B9EE
:101BF000022000E00020704740000020600000202C
:101C00002DE9F04100275B48006800287DD15A4843
:101C10000068451C5848056095B900BF5748D0F882
:101C2000008057480068554908605548C0F8008052
:101C300054480068401C53490860FFF735FC00BF5A
:101C40005148006885427DD300BF4C480068006859
:101C500008B9012000E0002020B14FF0FF304A49D0
:101C600008606EE045480068C068C4686668B542B0
:101C700002D24548066064E000BF6069D4E9021200
:101C80008A60D4E902214A60211D42688A4201D15A
:101C9000E1684160002262610168491E016000BF85
:101CA000A06AA0B100BFA06AD4E907128A60D4E993
:101CB00007214A6004F1180142688A4201D1216A71
:101CC00041600022A2620168491E016000BF00BF9E
:101CD00094F82C10012088402C49096808432B49AE
:101CE000086000BFE16A01EB8101294A02EB810132
:101CF0004868A0608268E260211D8268516081604E
:101D0000E16A01EB8101224A00E02BE002EB810253
:101D10006261E16A01EB81011D4A52F82110491C00
:101D2000E26A02EB82021A4B43F8221000BF00BFA6
:101D30001849E06A0968C96A884286D9012784E798
:101D400000E000BF13480068C06A00EB8000104943
:101D500051F82000012800D901270F48006800B180
:101D6000012704E00D480068401C0C490860384613
:101D7000BDE8F0816000002038000020280000202D
:101D80002C0000204C000020540000203C000020CB
:101D9000840000202400002048000020440000208F
:101DA0002DE9F04100240027FFF784FD002552486B
:101DB0000068401E504908600846006800286ED13F
:101DC0004E48006800286AD064E04D48C068C46886
:101DD00000BFA06AD4E907128A60D4E907214A60EB
:101DE00004F1180142688A4201D1216A416000224F
:101DF000A2620168491E016000BF00BF6069D4E9AA
:101E000002128A60D4E902214A60211D42688A4296
:101E100001D1E1684160002262610168491E0160F0
:101E200000BF00BF94F82C10012088403549096894
:101E300008433449086000BFE16A01EB8101324A7E
:101E400002EB81014868A0608268E260211D82681F
:101E500051608160E16A01EB81012B4A02EB810252
:101E60006261E16A01EB8101274A52F82110491CA5
:101E7000E26A02EB8202244B43F8221000BF00BF4B
:101E80002249E06A0968C96A884203D901202049C9
:101E900041F825001A48006810B9012001E026E049
:101EA0000020002891D00CB1FFF7FEFA194806680F
:101EB0006EB100BFFFF7A4FE18B10120144941F82C
:101EC0002500761E002EF5D100201249086010482A
:101ED00050F8250058B1012700BF0C4800683807AA
:101EE0000D490860BFF34F8FBFF36F8F00BFFFF73F
:101EF000F3FC3846BDE8F08160000020340000208B
:101F0000100100203C00002084000020240000205C
:101F1000480000204400002004ED00E00000000024
:101F20000000000001020304060708090000000089
:101F300001020304541F0008000000208400000078
:101F40004C0F0008D81F000884000020CC48000077
:101F50005C0F00080024F4000000000010000000E6
:101F60000100000000000000000000000000000070
:101F70000000000000000000000000000000000061
:101F80000000000000000000000000000000000051
:101F90000000000000000000000000000000000041
:101FA0000000000000000000000000000000000031
:101FB0000400000000000000AAAAAAAA0000000075
:101FC0000000000000000000000000000000000011
:081FD000000000000000000009
:040000050800018965
:00000001FF
