:020000040800F2
:100000001805002035020008290D0008210D000800
:10001000250D00086D030008990E0008000000007F
:100020000000000000000000000000009D0100082A
:100030007103000800000000E1010008650D0008E0
:100040004F0200084F0200084F0200084F0200084C
:100050004F0200084F020008850300084F02000805
:100060004F0200084F0200084F0200084F0200082C
:100070004F0200084F0200084F0200084F0200081C
:100080004F0200084F0200084F0200084F0200080C
:100090004F0200084F0200084F0200084F020008FC
:1000A0004F0200084F0200084F0200084F020008EC
:1000B0004F0200084F0200084F0200084F020008DC
:1000C0004F0200084F0200084F0200084F020008CC
:1000D0004F0200084F0200084F0200084F020008BC
:1000E0004F0200084F0200084F0200084F020008AC
:1000F0004F0200084F0200084F0200084F0200089C
:100100004F0200084F0200084F0200084F0200088B
:100110004F0200084F0200084F0200084F0200087B
:100120004F0200084F0200084F0200084F0200086B
:100130004F0200084F0200084F0200084F0200085B
:100140004F0200084F0200084F0200084F0200084B
:100150004F0200084F0200084F0200084F0200083B
:100160004F0200084F0200084F0200084F0200082B
:100170004F0200084F0200084F0200080000000074
:100180004F0200084F020008DFF80CD000F0B4F86E
:1001900000480047BD0E000818050020224B1968D2
:1001A0000868B0E8F00F80F30988BFF36F8F4FF055
:1001B000000080F311884EF00D0E70470000000023
:1001C00006480068006880F3088862B661B6BFF32D
:1001D0004F8FBFF36F8F00DF00BF00BF08ED00E05F
:1001E000EFF30980BFF36F8F0F4B1A6820E9F00F10
:1001F000106008B54FF0BF0080F31188BFF34F8F38
:10020000BFF36F8F00F084FE4FF0000080F3118881
:10021000BDE8084019680868B0E8F00F80F3098865
:10022000BFF36F8F704700BF10000020EFF3058011
:10023000704700000648804706480047FEE7FEE793
:10024000FEE7FEE7FEE7FEE7FEE7FEE7FEE7FEE786
:10025000350E0008890100082DE9F05F05460020F1
:1002600092469B4688460646814640241BE0284627
:1002700041464746224600F02FF853465A46C01AD8
:10028000914110D311461846224600F016F82D1A57
:1002900067EB01084F4622460120002100F00DF8CF
:1002A00017EB00094E41201EA4F10104DFDC484693
:1002B00031462A464346BDE8F09F202A04DB203A17
:1002C00000FA02F1002070479140C2F1200320FAA9
:1002D00003F3194390407047202A04DB203A21FAA7
:1002E00002F00021704721FA02F3D040C2F120024F
:1002F0009140084319467047064C074D06E0E068F8
:1003000040F0010394E8070098471034AC42F6D35C
:10031000FFF73EFF84110008A411000800B587B064
:1003200000BF002001900F48006840F040000D49D8
:1003300008600846006800F04000019000BF00BF60
:10034000802002900120039002200490059002A9D1
:10035000054800F019F800228021034800F014F944
:1003600007B000BD303802400018024000BFFEE771
:10037000704701B502E00098401E009000980028E8
:10038000F9D108BD70470000F8B502460B460025BC
:10039000002400200021DCE0012606FA01F51E6899
:1003A00006EA0504AC4273D15E68022E02D05E6894
:1003B000122E13D1CF0802F1200656F827004E075F
:1003C000F70E0F26BE40B0434F07FF0E1E69BE401A
:1003D0003043CF0802F1200646F8270010684F008E
:1003E0000326BE40B0431E7906F003064F00BE4010
:1003F000304310605E68012E08D05E68022E05D082
:100400005E68112E02D05E68122E13D190684F00E4
:100410000326BE40B0434F00DE68BE4030439060CC
:10042000506801268E40B0431E79C6F300168E40F8
:1004300030435060D0684F000326BE40B0434F00A9
:100440009E68BE403043D0605E6806F08056B6F1CC
:10045000805F7DD100BF00260096404E366846F48E
:1004600080463E4F3E603E46366806F48046009623
:1004700000BF00BF3A4E8F0856F827008E07370F8F
:100480000F26BE40B043374EB24202D1002624E0D0
:100490005EE0354EB24201D101261EE0334EB2423B
:1004A00001D1022619E0324EB24201D1032614E0F6
:1004B000304EB24201D104260FE02F4EB24201D19C
:1004C00005260AE02D4EB24201D1062605E02C4E4B
:1004D000B24201D1072600E008268F073F0FBE4039
:1004E00030431F4E8F0846F82700264E3068A04341
:1004F0005E6806F48036B6F5803F00D12043214E79
:100500003060361D3068A0435E6806F40036B6F5EC
:10051000003F00D120431B4E361D3060361D306831
:10052000A0435E6806F48016B6F5801F00D1204314
:10053000144E08363060361D3068A0435E6806F4FD
:100540000016B6F5001F00D120430E4E0C36306069
:10055000491C1029FFF420AFF8BD000044380240C8
:100560000838014000000240000402400008024038
:10057000000C02400010024000140240001802402B
:10058000001C0240003C01400AB1816101E00B0403
:100590008361704701480068000C7047002004E048
:1005A00001480068704700000400002070B5044650
:1005B0000E4800784FF47A71B1FBF0F00C490968ED
:1005C000B1FBF0F5284600F091FB08B1012070BDA9
:1005D000102C07D200222146501E00F00DF80548CD
:1005E000046001E00120F2E70020F0E70C000020A9
:1005F00000000020080000202DE9F05F80460D4635
:100600001646002700F092FB074639462A46334635
:1006100001F00700C0F1070ABAF1040F02D94FF048
:10062000040A01E0C0F1070AD14600F1040ABAF158
:10063000070F02D24FF0000A01E0A0F1030AD446EE
:100640004FF0010A0AFA09FAAAF1010A0AEA020AB3
:100650000AFA0CFA4FF0010B0BFA0CFBABF1010B91
:100660000BEA030B4AEA0B042146404600F066FB06
:10067000BDE8F09F70B504460D460CB9012070BD71
:100680005848006800F00F00A84209D255490D7083
:100690000846006800F00F00A84201D00120EEE7F4
:1006A000207800F0020002281DD1207800F004001C
:1006B000042805D14C48006840F4E0504A490860DD
:1006C000207800F00800082805D14748006840F469
:1006D0006040454908604448006820F0F000A16887
:1006E000084341490860207800F00100A8B3606821
:1006F000012807D13C4808380068C0F34040B8B929
:100700000120BCE76068022802D06068032807D196
:10071000354808380068C0F3406048B90120AEE7AA
:10072000314808380068C0F3400008B90120A6E746
:100730002D48006820F00300616808432A490860DA
:10074000FFF72EFF064609E0FFF72AFF801B41F264
:100750008831884202D9032091E707E022480068E7
:1007600000F00C006168B0EB810FEDD11D4800680E
:1007700000F00F00A84209D91A490D700846006818
:1007800000F00F00A84201D0012078E7207800F0A7
:100790000400042807D11448006820F4E050E16800
:1007A000084311490860207800F00800082808D1A3
:1007B0000D48006820F46040216940EAC1000A4900
:1007C000086000F017F808490968C1F30311074AE7
:1007D000515CC840064908600F20FFF7E7FE002083
:1007E0004DE70000003C0240083802406C11000850
:1007F000000000202DE9F047002400250026A14636
:100800002548006800F00C0020B1042805D0082815
:100810003AD105E0DFF8849039E0DFF8849036E0E3
:100820001D48001F006800F03F041B48001F0068BF
:1008300000F4800078B11A481749091F0968C1F30C
:100840008811A0FB01700146224600233846FFF7BD
:1008500003FD05460EE011480F49091F0968C1F361
:100860008811A0FB01700146224600233846FFF79D
:10087000F3FC05460848001F0068C0F30140401C17
:100880004600B5FBF6F902E0DFF8109000BF00BFAC
:100890004846BDE8F0870000083802400024F40014
:1008A00040787D01F8B504460CB90120F8BD2078E8
:1008B00000F00100002874D0F948006800F00C0036
:1008C00004280DD0F648006800F00C00082813D169
:1008D000F348001F006800F48000B0F5800F0BD1D2
:1008E000EF4808380068C0F34040002859D06068DD
:1008F000002856D10120D9E700BF6068B0F5803FDD
:1009000008D1E7480838006840F48030E4490839E5
:1009100008601EE06068B0F5A02F0DD1E0480838EF
:10092000006840F48020DE49083908600846006805
:1009300040F4803008600CE0D9480838006820F4A2
:100940008030D749083908600846006820F48020C4
:10095000086000BF606890B1FFF722FE054606E020
:10096000FFF71EFE401B642801D903209EE7CC48F8
:1009700008380068C0F340400028F1D011E0FFF7CC
:100980000FFE054606E0FFF70BFE401B642801D969
:1009900003208BE7C24808380068C0F340400028B5
:1009A000F1D1207800F0020002285FD1BC48006835
:1009B00000F00C0058B1BA48006800F00C0008289C
:1009C0001CD1B748001F006800F48000B0B9B448DB
:1009D00008380068C0F3400020B1E068012801D069
:1009E000012063E7AE480838006820F0F80021696C
:1009F00040EAC100AA490839086037E0E06800B35E
:100A00000120A8490860FFF7CBFD054606E0FFF787
:100A1000C7FD401B022801D9032047E7A04808383A
:100A20000068C0F340000028F1D09D4808380068F5
:100A300020F0F800216940EAC100994908390860AE
:100A400014E0002097490860FFF7AAFD054606E07C
:100A5000FFF7A6FD401B022801D9032026E7904896
:100A600008380068C0F340000028F1D1207800F079
:100A7000080008282CD16069A8B101208A490860C3
:100A8000FFF78EFD054606E0FFF78AFD401B0228B2
:100A900001D903200AE782486C300068C0F34000A7
:100AA0000028F1D014E000207F490860FFF778FDAE
:100AB000054606E0FFF774FD401B022801D903201C
:100AC000F4E677486C300068C0F340000028F1D1AC
:100AD000207800F00400042870D1002670483830D7
:100AE000006800F0805090B900BF002000906C4872
:100AF0003830006840F08050694938310860084655
:100B0000006800F08050009000BF00BF01266748D9
:100B1000006800F48070B0B96448006840F48070E8
:100B200062490860FFF73CFD054606E0FFF738FD27
:100B3000401B022801D90320B8E65C48006800F495
:100B400080700028F2D000BFA068012808D1544866
:100B50006830006840F001005149683108601DE0CC
:100B6000A06805280DD14E486830006840F00400A8
:100B70004B49683108600846006840F00100086091
:100B80000CE047486830006820F0010044496831B3
:100B900008600846006820F00400086000BFA068F4
:100BA000A8B1FFF7FDFC054609E0FFF7F9FC401B83
:100BB00041F28831884202D9032077E626E038489E
:100BC00068300068C0F340000028EED013E0FFF763
:100BD000E7FC054608E0FFF7E3FC401B41F28831E3
:100BE000884201D9032061E62D4868300068C0F3CF
:100BF00040000028EFD1012E07D129483830006885
:100C000020F0805026493831086000BFA069B8B391
:100C10002348006800F00C0008285ED0A069022874
:100C200046D100201F490866FFF7BAFC054606E0DA
:100C3000FFF7B6FC401B022801D9032036E618480E
:100C400008380068C0F340600028F1D1D4E90701FA
:100C50000843616A40EA81110122A06AC2EB500098
:100C600041EA00412C20005D41EA00600C49091F67
:100C7000086001200B490866FFF792FC054607E073
:100C80002DE0FFF78DFC401B022801D903200DE663
:100C9000034808380068C0F340600028F1D01EE027
:100CA0000838024000004742800E47420070004072
:100CB00000200C490866FFF773FC054606E0FFF7C5
:100CC0006FFC401B022801D90320EFE506480068AD
:100CD000C0F340600028F2D101E00120E6E50020E9
:100CE000E4E50000000047420038024070B50446C9
:100CF0002546681EB0F1807F01D301200FE0681EF9
:100D00004FF0E02148610F214FF0FF3000F016F85E
:100D100000204FF0E021886107200861002070BDAD
:100D200000BFFEE700BFFEE7704700000248006812
:100D3000C0F30220704700000CED00E010B5002861
:100D400007DA0A07140E054A00F00F031B1FD454DC
:100D500003E00A07130E024A135410BD18ED00E019
:100D600000E400E010B500F021F9012801D000F006
:100D700003F910BD00B593B000BF002001902A48D0
:100D8000006840F08050284908600846006800F07C
:100D90008050019000BF00BF00BF00200190234899
:100DA000006840F48040214908600846006800F46B
:100DB0008040019000BF00BF01200290000403901A
:100DC000022008904105099119210A914FF4A87158
:100DD0000B9102210C9107210D9102A8FFF762FDF2
:100DE00008B100BFFEE70F200E9002200F900020F8
:100DF00010904FF4A05011904FF4805012900521A4
:100E00000EA8FFF737FC08B100BFFEE7FFF7C2FBF3
:100E100041F20101884205D10548006840F4807024
:100E20000349086013B000BD403802400070004024
:100E3000003C02401448006840F470001249086009
:100E40001248006840F001001049086000200F4976
:100E5000083108600D4800680D4908400B490860DA
:100E60000C48091D0860081F006820F48020091F35
:100E70000860002005490C3108604FF0006002490D
:100E8000803908607047000088ED00E000380240BB
:100E9000FFFFF6FE1030002400BFFEE702E008C8A6
:100EA000121F08C1002AFAD170477047002001E0E4
:100EB00001C1121F002AFBD170470000FFF75AFF43
:100EC000FFF72CFA09E00548006880F0800003492C
:100ED00008606FF07F40FFF74CFAF4E71418024007
:100EE00009480068006808B9012000E0002020B12E
:100EF0004FF0FF300549086005E003480068C0680E
:100F0000006802490860704714000020400000207B
:100F10001448006818B101201349086021E000203E
:100F20001149086000BF11480068B0FA80F0C0F1B4
:100F30001F0100BF01EB81020D4B03EB82004268F1
:100F40005268426000F108024368934201D1C268CE
:100F500042604268D268074B1A6000BF00BF184663
:100F6000006870474C00002034000020280000205A
:100F7000500000201000002010B500BFBF2080F3FB
:100F80001188BFF34F8FBFF36F8F00BF00F01EF8C3
:100F900018B14FF080500449086000BF002080F372
:100FA000118800BF10BD000004ED00E0054909688C
:100FB00009B9012005E00449096809B9022000E0E7
:100FC000002070472C0000204C0000202DE9F0414B
:100FD00000275B48006800287DD15A480068451CFE
:100FE0005848056095B900BF5748D0F80080574869
:100FF0000068554908605548C0F8008054480068AA
:10100000401C53490860FFF76BFF00BF5148006860
:1010100085427DD300BF4C480068006808B90120B4
:1010200000E0002020B14FF0FF304A4908606EE038
:1010300045480068C068C4686668B54202D2454841
:10104000066064E000BF6069D4E902128A60D4E9F6
:1010500002214A60211D42688A4201D1E168416053
:10106000002262610168491E016000BFA06AA0B150
:1010700000BFA06AD4E907128A60D4E907214A6058
:1010800004F1180142688A4201D1216A41600022BC
:10109000A2620168491E016000BF00BF94F82C10D5
:1010A000012088402C49096808432B49086000BF8B
:1010B000E16A01EB8101294A02EB81014868A060E5
:1010C0008268E260211D826851608160E16A01EB03
:1010D0008101224A00E02BE002EB81026261E16AB9
:1010E00001EB81011D4A52F82110491CE26A02EB12
:1010F00082021A4B43F8221000BF00BF1849E06A71
:101100000968C96A884286D9012784E700E000BFE0
:1011100013480068C06A00EB8000104951F82000B5
:10112000012800D901270F48006800B1012704E019
:101130000D480068401C0C4908603846BDE8F08145
:101140004C00002024000020140000201800002083
:10115000380000204000002028000020500000201F
:1011600010000020340000203000002000000000AB
:101170000000000001020304060708090000000047
:1011800001020304A4110008000000205000000028
:101190009C0E0008F411000850000020C804000054
:1011A000AC0E00080024F400000000001000000055
:1011B000010000000000000000000000000000002E
:1011C000000000000000000000000000000000001F
:1011D000000000000000000000000000000000000F
:1011E00000000000000000000000000004000000FB
:0411F00000000000FB
:040000050800018965
:00000001FF
